:020000040800F2
:10000000000002206D330008D9300008DB30000802
:10001000DD300008DF300008E1300008000000009B
:10002000000000000000000000000000E3300008B5
:10003000E530000800000000E7300008E930000863
:10004000BD330008BD330008BD330008BD330008D0
:10005000BD330008BD330008BD330008BD330008C0
:10006000BD330008BD330008BD330008BD330008B0
:10007000BD330008BD330008BD330008BD330008A0
:10008000BD330008BD330008BD3300080000000088
:10009000000000000000000000000000BD33000868
:1000A000F1300008BD330008BD330008BD3300083F
:1000B000BD330008BD330008BD330008BD33000860
:1000C000BD330008BD330008BD330008BD33000850
:1000D000BD330008013100081131000800000000A4
:1000E000BD330008BD330008BD3300080000000028
:1000F000000000000000000000000000BD33000808
:1001000000000000BD330008BD330008BD33000807
:1001100000000000000000000000000000000000DF
:10012000BD330008BD33000821310008BD3300088D
:10013000BD330008000000000000000000000000C7
:10014000000000000000000000000000BD330008B7
:10015000BD330008BD330008BD330008BD330008BF
:10016000BD330008BD33000800000000000000009F
:10017000000000000000000000000000000000007F
:1001800000000000BD330008000000000000000077
:08019000BD330008BD33000877
:1001980010B5054C237833B9044B13B10448AFF3B9
:1001A80000800123237010BD3C04002000000000E3
:1001B800A838000808B5034B1BB103490348AFF33F
:1001C800008008BD0000000040040020A838000896
:1001D80081F0004102E000BF83F0004330B54FEAF0
:1001E80041044FEA430594EA050F08BF90EA020F5D
:1001F8001FBF54EA000C55EA020C7FEA645C7FEAF0
:10020800655C00F0E2804FEA5454D4EB5555B8BF12
:100218006D420CDD2C4480EA020281EA030382EA83
:10022800000083EA010180EA020281EA0303362D15
:1002380088BF30BD11F0004F4FEA01314FF4801CE8
:100248004CEA113102D0404261EB410113F0004FFA
:100258004FEA03334CEA133302D0524263EB4303B1
:1002680094EA050F00F0A780A4F10104D5F1200E4F
:100278000DDB02FA0EFC22FA05F2801841F10001AA
:1002880003FA0EF2801843FA05F359410EE0A5F17E
:1002980020050EF1200E012A03FA0EFC28BF4CF0AF
:1002A800020C43FA05F3C01851EBE37101F0004565
:1002B80007D54FF0000EDCF1000C7EEB00006EEB72
:1002C8000101B1F5801F1BD3B1F5001F0CD34908FC
:1002D8005FEA30004FEA3C0C04F101044FEA445253
:1002E80012F5800F80F09A80BCF1004F08BF5FEADA
:1002F800500C50F1000041EB045141EA050130BDBA
:100308005FEA4C0C404141EB0101013C28BFB1F5CB
:10031800801FE9D291F0000F04BF01460020B1FA16
:1003280081F308BF2033A3F10B03B3F120020CDAE9
:100338000C3208DD02F1140CC2F10C0201FA0CF0C7
:1003480021FA02F10CE002F11402D8BFC2F1200C2C
:1003580001FA02F120FA0CFCDCBF41EA0C019040E2
:10036800E41AA2BF01EB0451294330BD6FEA04042B
:100378001F3C1CDA0C340EDC04F11404C4F1200216
:1003880020FA04F001FA02F340EA030021FA04F328
:1003980045EA030130BDC4F10C04C4F1200220FA7F
:1003A80002F001FA04F340EA0300294630BD21FABD
:1003B80004F0294630BD94F0000F83F4801306BF83
:1003C80081F480110134013D4EE77FEA645C18BF77
:1003D8007FEA655C29D094EA050F08BF90EA020F0E
:1003E80005D054EA000C04BF1946104630BD91EA06
:1003F800030F1EBF0021002030BD5FEA545C05D109
:100408004000494128BF41F0004130BD14F5800447
:100418003CBF01F5801130BD01F0004545F0FE41BB
:1004280041F470014FF0000030BD7FEA645C1ABFF0
:10043800194610467FEA655C1CBF0B46024650EA27
:10044800013406BF52EA033591EA030F41F4002153
:1004580030BD00BF90F0000F04BF0021704730B5D9
:100468004FF4806404F132044FF000054FF00001AE
:1004780050E700BF90F0000F04BF0021704730B56F
:100488004FF4806404F1320410F0004548BF404244
:100498004FF000013EE700BF42004FEAE2014FEA99
:1004A80031014FEA02701FBF12F07F4393F07F4F74
:1004B80081F06051704732F07F4208BF704793F077
:1004C8007F4F04BF41F40021704730B54FF460748A
:1004D80001F0004521F000411CE700BF50EA01028D
:1004E80008BF704730B54FF000050AE050EA010236
:1004F80008BF704730B511F0004502D5404261EBA6
:1005080041014FF4806404F132045FEA915C3FF4E6
:10051800D8AE4FF003025FEADC0C18BF03325FEA83
:10052800DC0C18BF033202EBDC02C2F1200300FA34
:1005380003FC20FA02F001FA03FE40EA0E0021FA59
:1005480002F11444BDE600BF70B54FF0FF0C4CF447
:10055800E06C1CEA11541DBF1CEA135594EA0C0FF9
:1005680095EA0C0F00F0DEF82C4481EA030621EA34
:100578004C5123EA4C5350EA013518BF52EA03356F
:1005880041F4801143F4801338D0A0FB02CE4FF021
:100598000005E1FB02E506F00042E0FB03E54FF051
:1005A8000006E1FB03569CF0000F18BF4EF0010E49
:1005B800A4F1FF04B6F5007F64F5407404D25FEA45
:1005C8004E0E6D4146EB060642EAC62141EA5551F8
:1005D8004FEAC52040EA5E504FEACE2EB4F1FD0C3A
:1005E80088BFBCF5E06F1ED8BEF1004F08BF5FEAB8
:1005F800500E50F1000041EB045170BD06F000466A
:1006080046EA010140EA020081EA0301B4EB5C0416
:10061800C2BFD4EB0C0541EA045170BD41F480110E
:100628004FF0000E013C00F3AB8014F1360FDEBF33
:10063800002001F0004170BDC4F10004203C35DA0F
:100648000C341BDC04F11404C4F1200500FA05F392
:1006580020FA04F001FA05F240EA020001F0004233
:1006680021F0004110EBD37021FA04F642EB0601A9
:100678005EEA430E08BF20EAD37070BDC4F10C04D3
:10068800C4F1200500FA04F320FA05F001FA04F297
:1006980040EA020001F0004110EBD37041F1000183
:1006A8005EEA430E08BF20EAD37070BDC4F120058E
:1006B80000FA05F24EEA020E20FA04F301FA05F2F6
:1006C80043EA020321FA04F001F0004121FA04F29E
:1006D80020EA020000EBD3705EEA430E08BF20EA6E
:1006E800D37070BD94F0000F0FD101F000464000A8
:1006F80041EB010111F4801F08BF013CF7D041EA2A
:10070800060195F0000F18BF704703F0004652002D
:1007180043EB030313F4801F08BF013DF7D043EAFE
:100728000603704794EA0C0F0CEA135518BF95EAB4
:100738000C0F0CD050EA410618BF52EA4306D1D13B
:1007480081EA030101F000414FF0000070BD50EA5A
:10075800410606BF1046194652EA430619D094EAE4
:100768000C0F02D150EA013613D195EA0C0F05D1CE
:1007780052EA03361CBF104619460AD181EA030122
:1007880001F0004141F0FE4141F470014FF00000DA
:1007980070BD41F0FE4141F4780170BD70B54FF075
:1007A800FF0C4CF4E06C1CEA11541DBF1CEA1355F5
:1007B80094EA0C0F95EA0C0F00F0A7F8A4EB0504D7
:1007C80081EA030E52EA03354FEA013100F08880CE
:1007D8004FEA03334FF0805545EA131343EA126397
:1007E8004FEA022245EA111545EA10654FEA00264C
:1007F8000EF000419D4208BF964244F1FD0404F505
:10080800407402D25B084FEA3202B61A65EB030560
:100818005B084FEA32024FF480104FF4002CB6EB1D
:10082800020E75EB030E22BFB61A754640EA0C009D
:100838005B084FEA3202B6EB020E75EB030E22BFDD
:10084800B61A754640EA5C005B084FEA3202B6EB1E
:10085800020E75EB030E22BFB61A754640EA9C00DD
:100868005B084FEA3202B6EB020E75EB030E22BFAD
:10087800B61A754640EADC0055EA060E18D04FEA6B
:10088800051545EA16754FEA06164FEAC30343EA0B
:1008980052734FEAC2025FEA1C1CC0D111F4801FD8
:1008A8000BD141EA00014FF000004FF0004CB6E7D1
:1008B80011F4801F04BF01430020B4F1FD0C88BF70
:1008C800BCF5E06F3FF6AFAEB5EB030C04BFB6EB7B
:1008D800020C5FEA500C50F1000041EB045170BD6E
:1008E8000EF0004E4EEA113114EB5C04C2BFD4EB9B
:1008F8000C0541EA045170BD41F480114FF0000E1F
:10090800013C90E645EA060E8DE60CEA135594EA9A
:100918000C0F08BF95EA0C0F3FF43BAF94EA0C0F9D
:100928000AD150EA01347FF434AF95EA0C0F7FF412
:1009380025AF104619462CE795EA0C0F06D152EA66
:1009480003353FF4FDAE1046194622E750EA41064A
:1009580018BF52EA43067FF4C5AE50EA41047FF45B
:100968000DAF52EA43057FF4EBAE12E74A0011D20D
:1009780012F5001211D20DD56FF47873B3EB6252F1
:100988000ED44FEAC12343F0004343EA505323FAFD
:1009980002F070474FF00000704750EA013002D172
:1009A8004FF0FF3070474FF00000704753B94AB915
:1009B800002908BF00281CBF4FF0FF314FF0FF305F
:1009C80000F074B9ADF1080C6DE904CE00F006F83A
:1009D800DDF804E0DDE9022304B070472DE9F047B3
:1009E800089E0D4604468846002B4DD18A429446FF
:1009F80068D9B2FA82F252B101FA02F3C2F12001C7
:100A080020FA01F10CFA02FC41EA030894404FEA8B
:100A18001C45210CB8FBF5FE1FFA8CF705FB1E835D
:100A280041EA03430EFB07F199420BD91CEB030380
:100A38000EF1FF3080F01E81994240F21B81AEF129
:100A4800020E63445B1AA4B2B3FBF5F005FB103346
:100A580044EA034400FB07F7A7420AD91CEB040445
:100A680000F1FF3380F00881A74240F20581644419
:100A78000238E41B40EA0E4000211EB1D440002396
:100A8800C6E90043BDE8F0878B4208D9002E00F084
:100A9800EE800021C6E900050846BDE8F087B3FAF4
:100AA80083F100294AD1AB4202D3824200F2F98095
:100AB800841A65EB030301209846002EE2D0C6E9AC
:100AC8000048DFE702B9FFDEB2FA82F2002A40F0FE
:100AD8009180A1EB0C054FEA1C471FFA8CFE0121FF
:100AE800B5FBF7F307FB1350250C45EA00450EFB51
:100AF80003F0A84208D91CEB050503F1FF3802D220
:100B0800A84200F2CB8043462D1AA4B2B5FBF7F0F9
:100B180007FB105544EA05440EFB00FEA64508D91C
:100B28001CEB040400F1FF3502D2A64500F2BB809D
:100B38002846A4EB0E0440EA03409EE7C1F12007D3
:100B48008B4022FA07FC4CEA030C20FA07F405FA5A
:100B580001F31C43FD404FEA1C4900FA01F3B5FBC1
:100B6800F9F8200C1FFA8CFE09FB185540EA0545D8
:100B780008FB0EF0A84202FA01F20BD91CEB05059E
:100B880008F1FF3A80F08880A84240F28580A8F1F9
:100B9800020865442D1AA4B2B5FBF9F009FB1055FB
:100BA80044EA054500FB0EFEAE4508D91CEB0505D9
:100BB80000F1FF346CD2AE456AD90238654440EA88
:100BC8000840A0FB0294A5EB0E05A542C846A64620
:100BD80056D353D05EB1B3EB080265EB0E0505FAA8
:100BE80007F722FA01F3CD401F43C6E9007500213B
:100BF800BDE8F087C2F1200320FA03F10CFA02FCE9
:100C080025FA03F395400D434FEA1C471FFA8CFE63
:100C1800B3FBF7F107FB11302B0C43EA004301FB50
:100C28000EF0984204FA02F408D91CEB030301F110
:100C3800FF382FD298422DD9023963441B1AADB21E
:100C4800B3FBF7F007FB103345EA034500FB0EF34F
:100C5800AB4208D91CEB050500F1FF3816D2AB42B0
:100C680014D902386544ED1A40EA014138E73146A3
:100C7800304607E78646E5E61846FAE64B45A9D228
:100C8800B9EB020864EB0C0E0138A3E74046EAE72B
:100C9800204694E74146D1E7D0467BE7023B6544CE
:100CA80032E7084609E76444023842E7704700BF64
:100CB8004FF0FF3C06E000BF4FF0010C02E000BF20
:100CC8004FF0010C4DF804CD4FEA410C7FEA6C5C03
:100CD8004FEA430C18BF7FEA6C5C1BD001B050EAA6
:100CE800410C0CBF52EA430C91EA030F02BF90EA91
:100CF800020F0020704710F1000F91EA030F58BF50
:100D0800994208BF90422CBFD8176FEAE37040F0B1
:100D1800010070474FEA410C7FEA6C5C02D150EA4F
:100D2800013C07D14FEA430C7FEA6C5CD6D152EA0A
:100D3800033CD3D05DF8040B704700BF84461046CF
:100D480062468C461946634600E000BF01B5FFF7CE
:100D5800B7FF002848BF10F1000F01BD4DF808ED9E
:100D6800FFF7F4FF0CBF012000205DF808FB00BF6F
:100D78004DF808EDFFF7EAFF34BF012000205DF8C9
:100D880008FB00BF4DF808EDFFF7E0FF94BF012016
:100D980000205DF808FB00BF4DF808EDFFF7CEFF17
:100DA80094BF012000205DF808FB00BF4DF808ED56
:100DB800FFF7C4FF34BF012000205DF808FB00BF27
:100DC80010B504460E4B18784FF47A73B3FBF0F362
:100DD8000C4A1068B0FBF3F000F0B0F868B90F2CBB
:100DE80001D901200AE0002221464FF0FF3000F02F
:100DF8005FF8054B1C60002000E0012010BD00BF1B
:100E080000000020080000200400002008B50B4B5B
:100E18001A6842F400721A601A6842F480621A6012
:100E28001A6842F480721A60032000F02FF80F202D
:100E3800FFF7C6FF02F030F9002008BD003C024071
:100E4800034A1168034B1B780B441360704700BFBB
:100E58005804002000000020014B1868704700BFAC
:100E68005804002038B50446FFF7F6FF0546B4F1EC
:100E7800FF3F02D0044B1B781C44FFF7EDFF401BDB
:100E8800A042FAD338BD00BF00000020074AD3684B
:100E980023F4E0631B041B0C000200F4E06003432E
:100EA80043F0BF6343F40033D360704700ED00E0C4
:100EB80000B5194BDB68C3F30223C3F1070CBCF17F
:100EC800040F28BF4FF0040C03F1040EBEF1060F07
:100ED80018D9033B4FF0FF3E0EFA0CFC21EA0C0137
:100EE80099400EFA03F322EA0303194300280BDBA7
:100EF8000901C9B200F1604000F5614080F80013B3
:100F08005DF804FB0023E5E700F00F000901C9B212
:100F1800024B1954F4E700BF00ED00E014ED00E0C7
:100F2800002807DB00F01F02400901239340024A12
:100F380042F82030704700BF00E100E00138B0F10E
:100F4800807F0BD24FF0E0235861054AF02182F8E8
:100F580023100020986107221A617047012070470A
:100F680000ED00E030B405682C6824F480242C607F
:100F7800046863608368402B05D003689960036840
:100F8800DA6030BC704703689A600368D960F8E794
:100F980010B40368D9B210390B4AA2FB01421209F6
:100FA8000A4CA25CC2655F2908D923F47F7323F039
:100FB800030304338365806D10BC704723F47F738B
:100FC80023F003038365F6E7ABAAAAAAC038000892
:100FD800836A826992B9012B0AD0022B02D00BB125
:100FE80000207047C36A13F0807F28D10020704723
:100FF800C36AB3F1C07F24D000207047B2F5005F08
:1010080009D0022B25D9032B25D1C36A13F0807F81
:1010180023D100207047032B03D8DFE803F0140422
:10102800140A00207047C36A13F0807F0DD1002096
:101038007047C36AB3F1C07F09D000207047012010
:101048007047012070470120704701207047012038
:10105800704701207047002070470120704700004A
:1010680070B50446FFF7F8FE002C5BD00546022356
:1010780084F83530002384F834302268136823F06C
:101088000103136023681A6812F0010F0AD0FFF7F2
:10109800E3FE431B052BF5D920236365032084F861
:1010A800350070BD1A68204810406168A2680A437C
:1010B800E1680A4321690A4361690A43A1690A434D
:1010C800E1690A43216A0A430243616A04291ED07E
:1010D8001A602668756925F00705636A1D43042BA5
:1010E80007D1A36A1D43E36A1BB12046FFF770FFCF
:1010F80090B975612046FFF74BFFE26D3F2393409F
:10110800836000206065012384F83530C9E7E16A0F
:10111800206B01430A43DBE740236365012084F821
:101128003500BEE70120BCE73F8010F038B5044623
:10113800856D90F8340001282BD0012084F8340004
:1011480094F83500C0B2012804D0002384F8343064
:10115800022038BD022084F8350000206065204652
:10116800FFF700FFE26D3F239340AB6022681368EE
:1011780043F016031360236C23B12268136843F00D
:10118800080313602268136843F00103136000200A
:10119800DFE70220DDE770B50446866DFFF75CFEE9
:1011A80094F83530DBB2022B06D080236365002328
:1011B80084F83430012070BD05462268136823F096
:1011C800160313602268536923F080035361236C6C
:1011D800E3B12268136823F00803136022681368D8
:1011E80023F00103136023681B6813F0010F11D06B
:1011F800FFF732FE431B052BF5D920236365032037
:1012080084F83500002384F83430D4E7A36C002B2D
:10121800DFD1E3E7E26D3F239340B360012384F815
:101228003530002084F83400C5E790F83530DBB25B
:10123800022B03D08023436501207047052380F8E3
:1012480035300268136823F00103136000207047EB
:10125800F0B583B0044600230193724B1D68724BAE
:10126800A3FB0535AD0A876D3E68C26D0823934020
:10127800334210D003681A6812F0040F0BD01A68B2
:1012880022F004021A60C26D08239340BB60436DCC
:1012980043F001034365E26D01239340334209D0D3
:1012A8002268526912F0800F04D0BB60636D43F06E
:1012B80002036365E26D04239340334209D0226838
:1012C800126812F0020F04D0BB60636D43F0040390
:1012D8006365E26D10239340334224D0226812687C
:1012E80012F0080F1FD0BB6023681A6812F4802F11
:1012F8000DD01B6813F4002F04D1236C9BB120463A
:10130800984710E0A36C73B1204698470BE01A6821
:1013180012F4807F03D11A6822F008021A60236C45
:101328000BB120469847E26D20239340334255D0B5
:101338002268126812F0100F50D0BB6094F8353054
:10134800DBB2052B0ED023681A6812F4802F33D035
:101358001B6813F4002F2AD1636C002B3ED0204663
:1013680098473BE02268136823F01603136022684D
:10137800536923F080035361236CA3B12268136877
:1013880023F008031360E26D3F239340BB60012301
:1013980084F83530002384F83430236D002B3FD097
:1013A800204698473CE0A36C002BE7D1EBE7E36BC2
:1013B800A3B12046984711E01A6812F4807F09D13A
:1013C8001A6822F010021A60012384F835300023CD
:1013D80084F83430E36B0BB120469847636DFBB15A
:1013E800636D13F0010F17D0052384F83530226898
:1013F800136823F001031360019B01330193AB428F
:1014080004D823681B6813F0010FF5D1012384F871
:101418003530002384F83430E36C0BB1204698470C
:1014280003B0F0BD08000020B5814E1B00230F2B30
:1014380000F2D28070B582B060E085685E00032457
:10144800B44025EA0405CC68B4402C438460456860
:1014580025EA02054C68C4F300129A402A43426008
:101468005AE0DC08083450F8246003F007029500BD
:101478000F22AA4026EA020E0A69AA4042EA0E0290
:1014880040F824205CE0042200E0002202FA0EF278
:101498002A430234514D45F82420514A94686FEA92
:1014A8000C0224EA0C054E6816F4801F01D04CEAA1
:1014B80004054B4CA560E46802EA04054E6816F47E
:1014C800001F01D04CEA0405454CE560646802EA57
:1014D80004054E6816F4003F01D04CEA0405404C60
:1014E8006560246822404D6815F4803F01D04CEABD
:1014F80004023B4C226001330F2B6BD801229A4027
:101508000C6804EA020C32EA0404F4D14C6804F0D2
:101518000304013C012C90D94A6802F00302032A13
:1015280009D0C4685D000322AA4024EA02048A683C
:10153800AA402243C2604A6802F00302022A90D0FD
:1015480004684FEA430E032202FA0EF224EA020468
:101558004A6802F0030202FA0EF2224302604A6865
:1015680012F4403FC7D0002201921E4A546C44F442
:1015780080445464526C02F480420192019A9C089F
:10158800A51C164A52F8255003F003024FEA820EB2
:101598000F2202FA0EF225EA0205134A90423FF49E
:1015A80074AF02F5806290420ED002F580629042DC
:1015B8000CD002F5806290420AD002F58062904217
:1015C8003FF461AF072261E701225FE702225DE78E
:1015D80003225BE702B070BD704700BF00380140CE
:1015E800003C0140003802400000024003691942F3
:1015F80001D001207047002070470AB1816170470F
:10160800090481617047436901EA030221EA030181
:1016180041EA024181617047002800F0E08170B51D
:1016280082B00446036813F0010F3BD09F4B9B68C0
:1016380003F00C03042B2CD09C4B9B6803F00C0389
:10164800082B21D06368B3F5803F4FD0B3F5A02FA6
:1016580052D0964B1A6822F480321A601A6822F423
:1016680080221A606368002B50D0FFF7F5FB05460F
:101678008E4B1B6813F4003F14D1FFF7EDFB401BA2
:101688006428F5D90320B1E1884B5B6813F4800F17
:10169800D8D0864B1B6813F4003F03D06368002B37
:1016A80000F09F81236813F0020F54D07F4B9B6892
:1016B80013F00C0F3ED07D4B9B6803F00C03082BF6
:1016C80033D0E368002B68D0794B01221A60FFF70A
:1016D800C3FB0546754B1B6813F0020F54D1FFF787
:1016E800BBFB401B0228F5D903207FE16F4A136832
:1016F80043F480331360B5E76C4B1A6842F48022D8
:101708001A601A6842F480321A60ABE7FFF7A4FB4C
:101718000546664B1B6813F4003FC3D0FFF79CFBDC
:10172800401B6428F5D9032060E1604B5B6813F423
:10173800800FC6D15D4B1B6813F0020F03D0E3681E
:10174800012B40F05081594A136823F0F8032169AE
:1017580043EAC1031360236813F0080F42D063699A
:101768006BB3534B0122C3F8802EFFF775FB054678
:101778004E4B5B6F13F0020F34D1FFF76DFB401B2C
:101788000228F5D9032031E1484A136823F0F80309
:10179800216943EAC1031360DDE7454B00221A6063
:1017A800FFF75AFB0546414B1B6813F0020FD2D0D6
:1017B800FFF752FB401B0228F5D9032016E13C4BEA
:1017C8000022C3F8802EFFF747FB0546374B5B6FB7
:1017D80013F0020F06D0FFF73FFB401B0228F5D994
:1017E800032003E1236813F0040F77D02F4B1B6C01
:1017F80013F0805F33D1002301932C4B1A6C42F015
:1018080080521A641B6C03F080530193019B0125DD
:10181800284B1B6813F4807F23D0A368012B34D096
:10182800052B38D0214B1A6F22F001021A671A6F64
:1018380022F004021A67A368002B3DD0FFF70CFBC7
:1018480006461A4B1B6F13F0020F46D1FFF704FB35
:10185800801B41F288339842F3D90320C6E0002563
:10186800D6E7144A136843F480731360FFF7F4FA59
:101878000646104B1B6813F4807FCED1FFF7ECFAB5
:10188800801B0228F5D90320B0E0084A136F43F003
:1018980001031367CFE7054B1A6F42F004021A677A
:1018A8001A6F42F001021A67C5E700BF003802400C
:1018B8000000474200700040FFF7CEFA0646524B40
:1018C8001B6F13F0020F08D0FFF7C6FA801B41F216
:1018D80088339842F3D9032088E0EDB9A369002B37
:1018E80000F08380484A926802F00C02082A51D01E
:1018F800022B17D0454B00221A66FFF7ADFA0446B3
:10190800414B1B6813F0007F42D0FFF7A5FA001B7C
:101918000228F5D9032069E03B4A136C23F0805371
:101928001364DBE7394B00221A66FFF795FA054680
:10193800354B1B6813F0007F06D0FFF78DFA401B6C
:101948000228F5D9032051E0E369226A1343626A49
:1019580043EA8213A26A5208013A43EA0243E26A5E
:1019680043EA0263284A5360284B01221A66FFF7AC
:1019780073FA0446244B1B6813F0007F06D1FFF767
:101988006BFA001B0228F5D903202FE000202DE078
:1019980000202BE0012B2BD01B4B5B6803F480014C
:1019A800E269914226D103F03F02216A8A4223D19B
:1019B800616A47F6C0721A40B2EB811F1ED103F468
:1019C8004031A26A5208013AB1EB024F18D103F034
:1019D8007063E26AB3EB026F14D1002006E00120C5
:1019E8007047012002E0012000E0002002B070BD35
:1019F8000120FBE70120F9E70120F7E70120F5E7DF
:101A08000120F3E70120F1E70038024000004742D7
:101A180008B5254B9B6803F00C03042B3FD0082B1B
:101A28003FD1214B5A6802F03F025B6813F4800FE4
:101A380012D01D4B5968C1F388111C480023A1FB23
:101A48000001FEF7B3FF184B5B68C3F30143013392
:101A58005B00B0FBF3F025E0134B5968C1F3881C19
:101A68004FEA4C11B1EB0C006EEB0E0E4FEA8E13E1
:101A780043EA90638101091A63EB0E03DB0043EA32
:101A88005173C90011EB0C0C43F1000399020023B8
:101A98004FEA8C2041EA9C51FEF788FFD3E70348C0
:101AA80000E0034808BD00BF0038024040787D01CF
:101AB8000024F400002800F09B8070B50D46044611
:101AC8004F4B1B6803F007038B4208D2CBB24C4A3A
:101AD8001370136803F007038B4240F08B80236870
:101AE80013F0020F17D013F0040F04D0454A93687F
:101AF80043F4E0539360236813F0080F04D0414A7D
:101B0800936843F4604393603E4A936823F0F0037C
:101B1800A1680B439360236813F0010F32D0636808
:101B2800012B21D09A1E012A25D9364A126812F0B3
:101B3800020F61D033498A6822F0030213438B6095
:101B4800FFF78AF906462F4B9B6803F00C0362687F
:101B5800B3EB820F16D0FFF77FF9801B41F2883371
:101B68009842F0D9032042E0264A126812F4003F56
:101B7800E0D101203BE0234A126812F0007FD9D15E
:101B8800012034E01E4B1B6803F00703AB4207D962
:101B9800EAB21B4B1A701B6803F00703AB422DD146
:101BA800236813F0040F06D0164A936823F4E05311
:101BB800E1680B439360236813F0080F07D0114ABC
:101BC800936823F46043216943EAC1039360FFF7F4
:101BD8001FFF0C4B9B68C3F303130B4AD35CD8401D
:101BE8000A4B18600A4B1868FFF7EAF8002070BD26
:101BF800012070470120FAE70120F8E70120F6E705
:101C0800003C024000380240C838000808000020A4
:101C180004000020014B1868704700BF080000202E
:101C280008B5FFF7F7FF044B9B68C3F38223034A09
:101C3800D35CD84008BD00BF00380240D83800083F
:101C480008B5FFF7E7FF044B9B68C3F34233034A29
:101C5800D35CD84008BD00BF00380240D83800081F
:101C68002DE9F04782B00546884617461E46FFF71D
:101C7800F3F80A9B1B1A03EB0609FFF7EDF88246F7
:101C88002B4B1B68C3F3CB3309FB03F301932B687E
:101C98009C6838EA04030CBF4FF0010C4FF0000CAD
:101CA800BC4540D0B6F1FF3FF1D0FFF7D5F8A0EB27
:101CB8000A0048450AD2B9F1000F07D0019A02B1CB
:101CC8004A46019B013B01939146E0E72A68536825
:101CD80023F0E00353606B68B3F5827F0BD0AB6AE7
:101CE800B3F5005F14D0012385F85130002385F83F
:101CF8005030032018E0AB68B3F5004F02D0B3F5BD
:101D0800806FECD12A68136823F040031360E6E77C
:101D18002A68136823F4005313602A68136843F48D
:101D280000531360DFE7002002B0BDE8F08700BF72
:101D38000800002010B584B00446164B1868164BEE
:101D4800A3FB0030400D4FF47A7303FB00F00390BF
:101D58006368B3F5827F0BD0039BBBB1039B013B48
:101D6800039323689B6813F0800FF5D100200EE0E1
:101D780000920B46002280212046FFF771FF30B108
:101D8800636D43F020036365032000E0002004B086
:101D980010BD00BF08000020819F5E1600285AD0A1
:101DA80010B50446436A33B94368B3F5827F05D05A
:101DB8000023C36102E00023036143610023A3629F
:101DC80094F85130002B40D0022384F85130226817
:101DD800136823F040031360636803F48273A268F6
:101DE80002F404421343E26802F4006213432269D6
:101DF80002F002021343626902F001021343A2696E
:101E080002F400721343E26902F038021343226AB3
:101E180002F080021343A26A02F4005221681343BD
:101E28000B60638B03F00403626A02F010022168FE
:101E380013434B602268D36923F40063D361002005
:101E48006065012384F8513010BD84F85030204675
:101E580001F0CCF8B8E701207047000038B590F8D9
:101E68005030012B61D00446012380F8503090F89F
:101E78005150EDB29D4252D1002951D0002A4FD085
:101E8800032380F851300023436501638286C286AC
:101E98008363436403648387C3878368B3F5004F10
:101EA8002AD0A36C224A1A64A36C224ADA63A36C70
:101EB800214ADA64A36C00221A652268E38E9BB279
:101EC8000C32216BA06CFFF731F90146F8B9236891
:101ED8001A6812F0400F03D11A6842F040021A60E3
:101EE8002268536843F0200353602268536843F024
:101EF800020353600D4613E00268136823F04003A1
:101F080013600268136843F480431360C9E7636D84
:101F180043F010036365012384F8513000E0022583
:101F2800002384F85030284638BD0225FBE700BF5F
:101F3800491F0008771F0008551F000870477047A1
:101F480008B5806BFFF7FBFF08BD704708B5806BCD
:101F58000268536823F003035360436D43F0100392
:101F68004365012380F85130FFF7EFFF08BD30B516
:101F780083B00546846BFEF76FFF2B681B6813F46C
:101F8800807F23D1024621684B6823F020034B60F1
:101F980021684B6823F002034B6064212046FFF759
:101FA800C9FE18B1636D43F020036365A36833B9B4
:101FB80001932368DA6801929B680193019B0023CF
:101FC800E386012384F85130636D23B92046FFF777
:101FD800B5FF03B030BD2046FFF7B7FFF9E710B4EF
:101FE800036A046A24F001040462846924F0F00C92
:101FF8004CEA021223F00A030B438261036210BC0D
:10200800704710B4046A24F0100404628469036AF7
:1020180024F4704C4CEA023223F0A00343EA011383
:102028008261036210BC7047836823F070030B431E
:1020380043F007038360704790F83D30DBB2012B13
:102048002FD1022380F83D300268D36843F00103A2
:10205800D3600368154A934218D0B3F1804F15D066
:10206800A2F57C42934211D002F5806293420DD0D2
:1020780002F58062934209D002F59A32934205D064
:102088001A6842F001021A60002070479A6802F04C
:102098000702062A07D01A6842F001021A600020D7
:1020A8007047012070470020704700BF00000140C2
:1020B800704770477047704710B5044603681A693F
:1020C80012F0020F11D0DA6812F0020F0DD06FF083
:1020D80002021A610123037703689B6913F0030F57
:1020E80070D0FFF7E6FF0023237723681A6912F000
:1020F800040F12D0DA6812F0040F0ED06FF0040249
:102108001A610223237723689B6913F4407F5FD009
:102118002046FFF7CEFF0023237723681A6912F0C1
:10212800080F12D0DA6812F0080F0ED06FF008020C
:102138001A61042323772368DB6913F0030F4ED059
:102148002046FFF7B6FF0023237723681A6912F0A9
:10215800100F12D0DA6812F0100F0ED06FF01002C4
:102168001A61082323772368DB6913F4407F3DD085
:102178002046FFF79EFF0023237723681A6912F091
:10218800010F03D0DA6812F0010F36D123681A69FB
:1021980012F0800F03D0DA6812F0800F34D1236870
:1021A8001A6912F0400F03D0DA6812F0400F32D1EA
:1021B80023681A6912F0200F03D0DA6812F0200F92
:1021C80030D110BDFFF774FF2046FFF773FF8AE791
:1021D8002046FFF76DFF2046FFF76CFF9BE7204680
:1021E800FFF766FF2046FFF765FFACE72046FFF7DD
:1021F8005FFF2046FFF75EFFBDE76FF001021A613F
:10220800204600F093FFC1E76FF080021A61204674
:1022180000F016F9C3E76FF040021A612046FFF795
:102228004AFFC5E76FF020021A61204600F007F95F
:10223800C7E700000368254A90420ED0B0F1804FEE
:102248000BD0A2F57C42904207D002F58062904202
:1022580003D002F58062904203D123F070034A68EC
:1022680013431A4A90421AD0B0F1804F17D0A2F502
:102278007C42904213D002F5806290420FD002F562
:10228800806290420BD002F59A32904207D002F554
:102298008062904203D002F58062904203D123F419
:1022A8004073CA68134323F080034A6913430360E9
:1022B8008B68C3620B688362044B984202D0012387
:1022C800436170470B690363F9E700BF00000140F1
:1022D80040B310B5044690F83D30F3B1022384F8BA
:1022E8003D30214651F8040BFFF7A4FF012384F881
:1022F800463084F83E3084F83F3084F8403084F823
:10230800413084F8423084F8433084F8443084F80B
:10231800453084F83D30002010BD80F83C3000F096
:102328005DFFDBE70120704710B4846824F47F4C1C
:1023380042EA03220A4342EA0C02826010BC704758
:1023480090F83C30012B78D010B50446012380F872
:102358003C30022380F83D300268936823F47F43C1
:1023680023F0770393600B68602B4CD029D8402B5F
:1023780054D00CD9502B22D1CA6849680068FFF79D
:102388002EFE50212068FFF74FFE002005E0202B8D
:102398000DD009D9302B0AD00120012384F83D3013
:1023A800002384F83C3010BD0BB1102B05D1194621
:1023B8002068FFF739FE0020EFE70120EDE7012054
:1023C800EBE7B3F5805F34D0B3F5005F0CD1CB6891
:1023D8004A6889680068FFF7A7FF2268936843F492
:1023E800804393600020D8E7702B24D1CB684A68DB
:1023F80089680068FFF798FF2268936843F07703BD
:1024080093600020C9E7CA6849680068FFF7F9FDCA
:1024180060212068FFF708FE0020BEE7CA68496807
:102428000068FFF7DCFD40212068FFF7FDFD002074
:10243800B3E70020B1E70120AFE7022070477047FB
:102448007047026802F10C0353E8003F23F49073CD
:102458000C3242E800310029F3D1026802F114037A
:1024680053E8003F23F00103143242E80031002909
:10247800F3D1036B012B05D0202380F83E300023D5
:1024880003637047026802F10C0353E8003F23F02E
:1024980010030C3242E800310029F3D1ECE790F840
:1024A8003D30DBB2212B01D0022070478368B3F5A1
:1024B800805F17D0036A5A1C02621A7803685A6050
:1024C800C38C9BB2013B9BB2C3844BB90268D368EF
:1024D80023F08003D3600268D36843F04003D360DD
:1024E800002070470369002BE4D1036A1B88026847
:1024F800C3F308035360036A02330362E0E7000092
:1025080038B504460268136923F44053C1680B4385
:10251800136183680269134342691343C2691A430A
:102528000168CB6823F4164323F00C031343CB60F4
:102538000268536923F4407381690B43536103684C
:10254800314A934206D002F58062934202D0FFF7E7
:1025580067FB01E0FFF774FBE369B3F5004F29D08F
:102568000021031849411B1841F10001C90041EA43
:102578005371DB00181863684FEA83024FEA9373BC
:1025880041F10001FEF712FA204DA5FB0032510976
:10259800642303FB11031B013233A5FB03235B09EF
:1025A80003F0F00202EB011203F00F032168134459
:1025B8008B6038BD0023021843EB0301121841F168
:1025C8000001C90041EA5271D200101841F100011E
:1025D800626892185B41FEF7E9F90C4DA5FB0032E1
:1025E8005109642303FB1103DB003233A5FB0323EA
:1025F8005B095A0002F4F87202EB011203F00703B8
:10260800216813448B60D4E7001001401F85EB510B
:1026180058B310B5044690F83D300BB3242384F822
:102628003D302268D36823F40053D3602046FFF777
:1026380067FF2268136923F4904313612268536982
:1026480023F02A0353612268D36843F40053D3600C
:1026580000202064202384F83D3084F83E3010BDEB
:1026680080F83C3000F00EFED8E701207047704734
:1026780008B50168CA6822F04002CA60202280F8C2
:102688003D20FFF7F4FF002008BD7047704708B5EC
:10269800806B0023C385C384FFF7F8FF08BD70472C
:1026A80090F83E30DBB2222B67D18368B3F5805FA8
:1026B8004DD0826AB3F5805F04D0002B54D10369F2
:1026C800002B51D103685B681370836A01338362FE
:1026D800C38D9BB2013B9BB2C385002B4FD100B584
:1026E80083B00268D36823F02003D3600268D368FC
:1026F80023F48073D3600268536923F001035361A4
:10270800202380F83E30036B012B33D10023036371
:10271800026802F10C0353E8003F23F010030C3267
:1027280042E800310029F3D103681A6812F0100F4B
:1027380006D0002201921A6801925B680193019BFE
:10274800818DFFF7ACFF002003B05DF804FB026940
:10275800002AAED1826A03685B68C3F3080313805A
:10276800836A02338362B3E703685B6803F07F031D
:102778001370AAE7FFF789FFE5E7022070470020FA
:102788007047000030B583B0044602681368D0680B
:10279800516913F00F0505D113F0200F02D010F086
:1027A800200F19D12DB111F0010119D110F4907F2A
:1027B80016D1216B01297DD013F0800F03D010F0C2
:1027C800800F40F0158113F0400F03D010F0400F38
:1027D80040F0128103B030BD2046FFF761FFF9E7F2
:1027E80013F0010F06D010F4807F03D0226C42F062
:1027F8000102226413F0040F04D019B1226C42F0D4
:102808000202226413F0020F04D019B1226C42F0C4
:102818000402226413F0080F07D010F0200F00D133
:1028280019B1226C42F008022264226C002AD1D02D
:1028380013F0200F02D010F0200F29D123685B6914
:1028480003F04003226C12F0080F00D163B3204656
:10285800FFF7F7FD23685B6913F0400F20D022686B
:1028680002F1140353E8003F23F04003143242E816
:1028780000310029F3D1A36B73B1614A1A65A06BCB
:10288800FEF7D3FC0028A5D0A06B036D9847A1E7FD
:102898002046FFF705FFD1E72046FFF7F7FE99E747
:1028A8002046FFF7F3FE95E72046FFF7EFFE0023EB
:1028B80023648FE713F0100F3FF47EAF10F0100F72
:1028C8003FF47AAF0023019313680193536801938F
:1028D800019B536913F0400F50D0A26B13685B68DB
:1028E8009BB2002B3FF476AFA18D99427FF672AF71
:1028F800E385D369B3F5807F37D0226802F10C03F2
:1029080053E8003F23F480730C3242E80031002979
:10291800F3D1226802F1140353E8003F23F00103C6
:10292800143242E800310029F3D1226802F114037D
:1029380053E8003F23F04003143242E800310029F5
:10294800F3D1202384F83E3000232363226802F168
:102958000C0353E8003F23F010030C3242E8003127
:102968000029F3D1A06BFEF716FCA18DE38D9BB275
:10297800C91A89B22046FFF792FE2BE7A18DE38D95
:102988009BB2C91A89B2E38D9BB2002B3FF422AFE8
:1029980000293FF41FAF226802F10C0353E8003FFF
:1029A80023F490730C3242E800300028F3D12268F7
:1029B80002F1140353E8003F23F00103143242E804
:1029C80000300028F3D1202384F83E30002323630D
:1029D800226802F10C0353E8003F23F010030C3285
:1029E80042E800300028F3D12046FFF758FEF1E610
:1029F8002046FFF754FDEDE62046FFF739FEE9E6ED
:102A08009726000810B582B08DF80700E1B10122C1
:102A180040211048FEF7F1FD0F4C0022012120460D
:102A2800FEF7EBFD01220DF107010C48FFF716FA3E
:102A3800012211462046FEF7E0FD0122402105480B
:102A4800FEF7DBFD02B010BD002240210148FEF771
:102A5800D4FDE1E70000024000040240BC0400206D
:102A680010B50446A1F150000021C0B2FFF7CAFF1B
:102A78002009002140F01000FFF7C4FF04F00E0009
:102A8800002140F00100FFF7BDFF10BD38B500255B
:102A98000AE001210020FFF7B5FF0134E4B214F089
:102AA800800FF6D00135EDB2072D0FD8A5F15000F3
:102AB8000021C0B2FFF7A6FF00210846FFF7A2FFDA
:102AC80000211020FFF79EFF0024E8E738BD000032
:102AD80010B5484C012210212046FEF78EFDC82073
:102AE800FEF7C0F9002210212046FEF786FDC82017
:102AF800FEF7B8F9012210212046FEF77EFD0021DD
:102B0800AE20FFF77FFF00210846FFF77BFF00217B
:102B18001020FFF777FF00214020FFF773FF002107
:102B28008120FFF76FFF0021CF20FFF76BFF002107
:102B3800A120FFF767FF0021C820FFF763FF0021EE
:102B4800A620FFF75FFF0021A820FFF75BFF002109
:102B58003F20FFF757FF0021D320FFF753FF002145
:102B68000846FFF74FFF0021D520FFF74BFF002154
:102B78008020FFF747FF0021D920FFF743FF0021FE
:102B8800F120FFF73FFF0021DA20FFF73BFF00218C
:102B98001220FFF737FF0021DB20FFF733FF00216A
:102BA8004020FFF72FFF00212020FFF72BFF0021F7
:102BB8000220FFF727FF00218D20FFF723FF0021C8
:102BC8001420FFF71FFF0021A420FFF71BFF00219F
:102BD800A620FFF717FF0021AF20FFF713FF002102
:102BE800AF20FFF70FFFFFF751FF00210846FFF75F
:102BF80037FF10BD0000024038B505460C4600F00E
:102C0800DBFB802000F00AFC00F038FC284600F0CE
:102C180005FC00F033FC204600F000FC00F02EFC20
:102C280000F0E6FB38BD10B5044600F0C5FB802077
:102C380000F0F4FB00F022FC204600F0EFFB00F06F
:102C48001DFC00F0B9FB812000F0E8FB00F016FC49
:102C5800002000F063FC044600F0CAFB204610BDCB
:102C680038B50003FDF706FC19A3D3E90023FDF7E7
:102C78006BFC02460B4618A1D1E90001FDF78EFD59
:102C88000022174BFDF7AAFA00F08EFDFDF76EFE45
:102C9800C5B2013DEDB20020FFF7C5FF044600F0C4
:102CA8006F0141F010010020FFF7A6FF2946FE2022
:102CB800FFF7A2FF21460020FFF79EFF0520FEF741
:102CC800D1F864F05E01C9B20020FFF795FF38BD66
:102CD80014AE47E17A14F03F0000000084D7774132
:102CE8000000E03FF8B504460F4616468500EDB2F1
:102CF800A81DC9B200F0FE00FFF77EFFE81D390AE3
:102D0800C0B2FFF779FFA01C8000F1B200F0FC0010
:102D1800FFF772FF05F10900310AC0B2FFF76CFF37
:102D2800F8BD00000000000010B5044601F15A008B
:102D3800FDF7A0FB08A3D3E90023FDF705FC08A3D2
:102D4800D3E90023FDF74AFAFDF710FE82B200210D
:102D58002046FFF7C7FF10BD57D6917E5634024074
:102D68009A9999999999594010B500F003FC002156
:102D78000846FFF741FF3220FFF772FF002405E005
:102D88005A212046FFF7D0FF0134E4B20E2CF7D9C0
:102D980010BD000000B583B000210191094B1A6BEA
:102DA80042F480021A631B6B03F480030193019BB6
:102DB8000A463A20FEF77CF83A20FEF7B1F803B04D
:102DC8005DF804FB003802402DE9F0418AB0002488
:102DD8000594069407940894099401942F4B1A6B50
:102DE80042F004021A631A6B02F004020192019A7B
:102DF80002941A6B42F080021A631A6B02F0800286
:102E08000292029A03941A6B42F001021A631A6B37
:102E180002F001020392039A04941A6B42F0020230
:102E28001A631B6B03F002030493049BDFF87080A2
:102E380022464FF400514046FEF7DFFB194F224669
:102E480050213846FEF7D9FB174E01224FF4816115
:102E58003046FEF7D2FB4FF4005305930125069543
:102E68000794089405A94046FEF7E0FA5023059315
:102E780006950794089405A93846FEF7D7FA4FF443
:102E8800816305931123069307950223089305A9E7
:102E98003046FEF7CBFA0AB0BDE8F08100380240B0
:102EA80000080240000002400004024072B6FEE73B
:102EB80000B595B03022002108A800F0B3FB00232C
:102EC8000393049305930693079301931E4A116C89
:102ED80041F080511164126C02F080520192019A03
:102EE80002931A4A116841F440411160126802F4D1
:102EF80040420292029A0222089201210B9110216B
:102F08000C910E920F93082310936423119312923D
:102F18000423139308A8FEF77FFB88B90F230393B4
:102F280002230493002305934FF4805206920793DB
:102F3800032103A8FEF7BEFD20B915B05DF804FB18
:102F4800FFF7B4FFFFF7B2FF0038024000700040FF
:102F580008B5FDF75BFFFFF7ABFFFFF735FFFFF79E
:102F680019FF00F021F800F00DF900F057F900F012
:102F78006FF9FFF7F9FE0B48FFF75EF8FFF7A8FDBA
:102F88001E210020FFF7D0FE3C210120FFF7CCFED8
:102F980082210220FFF7C8FEAA210320FFF7C4FE02
:102FA800FEE700BF1805002008B50E480E4B036069
:102FB8004FF48273436000238360C36003614361FD
:102FC8004FF4007282611022C2610362436283621D
:102FD8000A23C362FEF7E2FE00B908BDFFF766FFE9
:102FE800FBE700BFBC0400200030014030B589B0C9
:102FF8000023039304930593069307930268224BD7
:103008009A4201D009B030BD04460025019503F568
:1030180084335A6C42F480525A645A6C02F48052D7
:103028000192019A02951A6B42F001021A631B6B16
:1030380003F001030293029BA0230393022304934A
:10304800032306930523079303A91048FEF7EEF917
:103058000F48104B03604FF0806343604023836048
:10306800C5604FF48063036145618561C561056290
:103078004562FDF7F5FF18B9054BA3649C63C1E7EA
:10308800FFF714FFF8E700BF0030014000000240DE
:103098005C0400204064024082B0002100910B4B88
:1030A8005A6C42F480425A645A6C02F4804200928C
:1030B800009A01911A6C42F080521A641B6C03F05A
:1030C80080530193019B02B0704700BF0038024053
:1030D800FEE7FEE7FEE7FEE7FEE77047704770474A
:1030E80008B5FDF7ADFE08BD08B50248FEF7E4FFD8
:1030F80008BD00BF1805002008B50248FFF742FBCD
:1031080008BD00BF6005002008B50248FFF73AFB7C
:1031180008BD00BFA405002008B50248FEF798F8CE
:1031280008BD00BF5C0400207047000008B50268B5
:10313800104B9A4200D008BD0F4A13680133136040
:103148000E4981FB0321DA17C2EB6112642101FBEE
:1031580012324AB1084B1A6841F288339A42EADDC2
:10316800054B00221A60E6E74FF400510448FEF7C9
:103178004AFAEFE700400140140500201F85EB5193
:103188000008024000B585B0002300930193029324
:1031980003931048104A026063224260836040F241
:1031A800E732C260036180238361FFF791F850B969
:1031B8004FF48053009369460648FFF7C1F828B9D1
:1031C80005B05DF804FBFFF771FEF1E7FFF76EFE4F
:1031D800F6E700BF180500200040014002680E4BCA
:1031E8009A4200D0704700B583B00021019103F5E1
:1031F80078435A6C42F480325A645B6C03F480332F
:103208000193019B0A461820FDF752FE1820FDF78E
:1032180087FE03B05DF804FB0040014008B50A488A
:103228000A4B03604FF4E133436000238360C360BB
:1032380003610C2242618361C361FFF7E9F900B9B8
:1032480008BDFFF733FEFBE76005002000100140D2
:1032580008B50A480A4B03604FF4E1334360002382
:103268008360C36003610C2242618361C361FFF71D
:10327800CFF900B908BDFFF719FEFBE7A405002048
:103288000044004010B58AB00023059306930793C5
:103298000893099303682F4A934204D02E4A934215
:1032A8002DD00AB010BD002401942C4B5A6C42F06A
:1032B80010025A645A6C02F010020192019A0294A8
:1032C8001A6B42F001021A631B6B03F001030293AD
:1032D800029B4FF4C06305930223069303230893CC
:1032E8000723099305A91E48FEF7A0F822462146A0
:1032F8002520FDF7DDFD2520FDF712FED1E700248E
:103308000394164B1A6C42F400321A641A6C02F4D5
:1033180000320392039A04941A6B42F001021A6372
:103328001B6B03F001030493049B0C2305930223F6
:103338000693032308930723099305A90848FEF772
:1033480075F8224621462620FDF7B2FD2620FDF716
:10335800E7FDA6E7001001400044004000380240A5
:1033680000000240DFF834D00D480E490E4A002311
:1033780002E0D458C4500433C4188C42F9D30B4A21
:103388000B4C002301E013600432A242FBD3FFF789
:10339800CBFE00F023F9FFF7DBFD704700000220A9
:1033A800000000203C040020F83800083C040020FD
:1033B800EC050020FEE7000010B50C4C01220821A6
:1033C8002046FEF71AF901224FF480612046FEF7E5
:1033D80014F9002208212046FEF70FF900224FF4C5
:1033E80080612046FEF709F910BD00BF00040240C5
:1033F80010B5094C002208212046FEF7FEF80122EC
:103408004FF480612046FEF7F8F801220821204693
:10341800FEF7F3F810BD00BF0004024070B5054682
:10342800002417E0012208211348FEF7E6F8124E9F
:1034380001224FF480613046FEF7DFF800224FF496
:1034480080613046FEF7D9F8072C0ED06D00EDB23A
:103458000134E4B2072C0ED815F0800FE2D1002217
:1034680008210548FEF7C9F8E1E70122082130469E
:10347800FEF7C3F8EAE770BD0004024010B50D4C32
:10348800012208212046FEF7B8F801224FF4806196
:103498002046FEF7B2F808212046FEF7A7F80446B2
:1034A80000B1012400224FF480610248FEF7A5F81C
:1034B800204610BD0004024010B50C4C0022082123
:1034C8002046FEF79AF801224FF480612046FEF765
:1034D80094F800224FF480612046FEF78EF801220E
:1034E80008212046FEF789F810BD00BF00040240FD
:1034F80010B5094C012208212046FEF77EF801226A
:103508004FF480612046FEF778F800224FF480617E
:103518002046FEF772F810BD00040240F8B50746D1
:103528000024254607E000224FF480611048FEF78A
:1035380064F80135EDB2072D11D86400E4B20C4EE1
:1035480001224FF480613046FEF757F808213046D3
:10355800FEF74CF80028E6D00134E4B2E3E71FB9DF
:10356800FFF7C6FF2046F8BDFFF7A6FFFAE700BF42
:103578000004024070B588B000210191154B1A6B08
:1035880042F002021A631A6B02F002020192019AD7
:1035980002911A6B42F002021A631B6B03F00203DA
:1035A8000293029B4FF4806303930226069611252B
:1035B8000495094C03A92046FDF738FF0823039317
:1035C8000696049503A92046FDF730FFFFF710FF84
:1035D80008B070BD003802400004024070B50D4EBE
:1035E8000D4D761BB61006D0002455F8043B013467
:1035F8009847A642F9D1094E094D761B00F050F9BB
:10360800B61006D0002455F8043B01349847A6426A
:10361800F9D170BDEC380008EC380008F43800081F
:10362800EC380008830730B548D0541E002A3FD034
:10363800CAB2034601E0013C3AD303F8012B9D07C7
:10364800F9D1032C2DD9CDB245EA05250F2C45EA31
:10365800054536D9A4F1100222F00F0C03F1200E13
:10366800E6444FEA121C03F1100242E9045542E90C
:10367800025510327245F8D10CF1010214F00C0F0A
:1036880003EB021204F00F0C13D0ACF1040323F087
:1036980003030433134442F8045B9342FBD10CF058
:1036A80003042CB1CAB21C4403F8012B9C42FBD181
:1036B80030BD64461346002CF4D1F9E7034614469E
:1036C800BFE71A46A446E0E7024B13B1024800F0F0
:1036D80005B8704700000000F136000800230146D5
:1036E8001A46184600F01AB838B5084B084D5B1B47
:1036F8009C1007D0043B1D44013C55F804399847F9
:10370800002CF9D1BDE8384000F0D0B8F8380008EE
:10371800F4380008704700BF704700BF2DE9F04734
:10372800DFF87CA00646DAF8000098460F46914676
:10373800FFF7F0FF1B4B1B68D3F8484124B36568BB
:103748001F2D26DC5EB96B1C0235DAF800006360B9
:1037580044F82570FFF7E0FF0020BDE8F08704EB90
:1037680085010123C1F88890D4F88821AB401A4319
:10377800022EC4F88821C1F80881E4D1D4F88C213C
:103788001343C4F88C31DEE703F5A674C3F8484147
:10379800D5E7DAF80000FFF7BFFF4FF0FF30DCE7AE
:1037A80038040020E0380008C1F30A52F8B5A2F244
:1037B800FF35132D0B4684460C46064630DC002D9B
:1037C8001EDB354F2F4101EA0702024315D030A313
:1037D800D3E90023FCF702FD00220023FDF7E6FAF7
:1037E80048B1002C04DA4FF4801343FA05F52C4451
:1037F80024EA070400262346B44660461946F8BD65
:1038080023A3D3E90023FCF7E9FC00220023FDF7FA
:10381800CDFA0028EFD0002C24DB00263446EAE756
:10382800332D08DDB5F5806FE7D10246FCF7D6FCED
:1038380084460B46E1E7A2F213424FF0FF37D74028
:103848000742DAD012A3D3E90023FCF7C7FC002211
:103858000023FDF7ABFA0028CDD0002C0BDB26EABD
:103868000706C8E724F000430C4A1E43002E18BF81
:1038780014460026BFE7142D08D00123C5F13405EE
:1038880003FA05F5AE1928BFE418E8E70134E6E7BE
:103898009C7500883CE4377EFFFF0F000000F0BFF6
:1038A800F8B500BFF8BC08BC9E467047F8B500BF25
:0838B800F8BC08BC9E467047F5
:1038C00000061016000610160000000000000000A0
:1038D00001020304060708090000000001020304B6
:0438E00010000020B4
:0838E40000D1FF7F010000008C
:0838EC00D1360008BD010008FF
:0438F400990100082E
:1038F80001000000100000000024F4000000000097
:1039080000000000FC02002064030020CC0300201B
:10391800000000000000000000000000000000009F
:10392800000000000000000000000000000000008F
:10393800000000000000000000000000000000007F
:10394800000000000000000000000000000000006F
:10395800000000000000000000000000000000005F
:10396800000000000000000000000000000000004F
:10397800000000000000000000000000000000003F
:10398800000000000000000000000000000000002F
:10399800000000000000000000000000000000001F
:1039A800000000000000000001000000000000000E
:1039B8000E33CDAB34126DE6ECDE05000B000000D3
:1039C80000000000000000000000000000000000EF
:1039D80000000000000000000000000000000000DF
:1039E80000000000000000000000000000000000CF
:1039F80000000000000000000000000000000000BF
:0C3D28000000000000000000E805002082
:040000050800336D4F
:00000001FF
